:100000000C94B4000C94DC000C94DC000C94DC0028
:100010000C94DC000C94DC000C94DC000C946A0E54
:100020000C94DC000C94DC000C94DC000C94F904BF
:100030000C94DC000C94DC000C94DC000C94DC00D0
:100040000C94EF060C94DC000C94530A0C94850A73
:100050000C94DC000C94DC000C94DC000C94DC00B0
:100060000C94DC000C94DC000C94DC000C94DC00A0
:100070000C94DC000C94DC000C94DC000C94DC0090
:100080000C94DC000C94DC000C94DC000C94DC0080
:100090000C94DC000C94DC000C94DC000C94DC0070
:1000A0000C94DC000C94DC000C94DC000C94DC0060
:1000B0000C94DC00090426041E0426042604020411
:1000C0002604FF032604260421041404260426041F
:1000D000260426042404180426041B042B082E08D6
:1000E000210825084F084F08320836083C08400808
:1000F0004F0846084A08090C0A08000201000003DC
:1001000004070000000000000000000000000102E1
:100110000408102040800102040810200102040895
:10012000102004080102040404040404040402026C
:100130000202020203030303030305050505000091
:1001400000002300260029002C00000000002500EC
:1001500028002B002E0000000000240027002A00A9
:100160002D000200E203B50A11241FBECFEFD8E034
:10017000DEBFCDBF11E0A0E0B1E0EEE2FFE102C0E2
:1001800005900D92A432B107D9F722E0A4E2B1E0C4
:1001900001C01D92A733B207E1F710E0C4EBD0E035
:1001A00004C02197FE010E94750FC23BD107C9F719
:1001B0000E94080F0C94950F0C940000CF92DF92D0
:1001C000EF92FF920F931F93E82FF92F05C0015074
:1001D00011092109310961F1908196239417B9F32E
:1001E00005C0015011092109310911F190819623AF
:1001F0009413F7CFC12CD12CE12CF12C0AC08FEF36
:10020000C81AD80AE80AF80A0C151D052E053F057C
:1002100079F080818623841791F36C2D7D2D8E2DAE
:100220009F2D1F910F91FF90EF90DF90CF90089539
:1002300060E070E080E090E01F910F91FF90EF9000
:10024000DF90CF90089580910F0190911001039756
:1002500021F461E084E00E94500860E084E00E94A4
:100260008C0882E090E00E949A0761E084E00E949E
:100270008C088AE090E00E949A0760E084E00E9487
:100280008C0880910F0190911001039729F460E090
:1002900080910D010E94500860E084E00E945008A7
:1002A00020E432E44FE050E061E084E00C94E508A3
:1002B0000E9423012AE330E040E050E00E94560F04
:1002C000CA01B90108950F931F93CF93DF938C0157
:1002D000EB01BC0181E391E00E949306BE01DD0FBA
:1002E000880B990B0E945E071093300100932F0139
:1002F000DF91CF911F910F91089564EF71E00E94FB
:1003000063010E94580161157105A9F064317105FE
:1003100094F42CE231E040E050E065E071E08CE0E4
:100320000E940D0B6CE271E080E090E00E945E079D
:1003300080E090E0089526E930E040E050E069E494
:1003400071E08CE00E940D0B66E970E080E090E0C7
:100350000E945E0781E090E008956AE570E083E422
:1003600091E00E9493066AE070E080E090E00E94D5
:100370005E076AE570E080E491E00E9493066AE01F
:1003800070E080E090E00C945E07809104018111A0
:1003900006C064EF71E080E590E00E9463010E9476
:1003A000580161157105B9F064317105A4F40E941A
:1003B000AD012CE231E040E050E065E071E08CE01E
:1003C0000E940D0B6CE271E080E090E00E945E07FD
:1003D00080E090E0089581E090E0089580912F0101
:1003E000909130018035910531F06AE070E080E550
:1003F00090E00E94630160E070E083E491E00E947D
:1004000093066AE070E080E090E00E945E0764EB93
:1004100070E080E491E00E9493066AE070E080E082
:1004200090E00C945E0780912F019091300180350F
:10043000910531F06AE070E080E590E00E94630190
:100440008091460190914701039769F524E630E0D9
:1004500040E050E065E071E08CE00E940D0B6CE242
:1004600071E080E090E00E945E0724E630E040E02A
:1004700050E065E271E08CE00E940D0B6CE271E0EF
:1004800080E090E00E945E072CE231E040E050E026
:1004900065E071E08CE00E940D0B64EF71E080E09C
:1004A00090E00E945E0764EB70E083E491E00E94BC
:1004B00093066AE070E080E090E00E945E0760E0F2
:1004C00070E080E491E00E9493066AE070E080E0D2
:1004D00090E00C945E0780912F01909130018E3650
:1004E000910531F06AE070E08EE690E00E946301D1
:1004F0006AE570E083E491E00E9493066AE070E0B0
:1005000080E090E00E945E0764EB70E080E491E0A0
:100510000E9493066AE070E080E090E00C945E0731
:1005200080912F0190913001C29731F06AE070E024
:1005300082E390E00E94630160E070E083E491E078
:100540000E9493066AE070E080E090E00E945E07FF
:100550006AE570E080E491E00E9493066AE070E052
:1005600080E090E00C945E070E946B0264E873E008
:1005700080E090E00E945E070C94AD010E94900222
:1005800064E873E080E090E00E945E070C94AD01A7
:1005900082E00E94BC0890933F0180933E0183E07B
:1005A0000E94BC0890933D0180933C0160913E0104
:1005B00070913F0120910B0130910C0140913A0163
:1005C00050913B016217730729F48417950711F4C2
:1005D0000C9490026417750729F48217930711F49D
:1005E0000C946B020C94EE0181E10E94FA07909347
:1005F00039018093380180E10E94FA079093370116
:100600008093360120913801309139018091340175
:1006100090913501281739071CF46AE570E002C093
:1006200064EB70E080E491E00E9493066AE070E081
:1006300080E090E00E945E07209136013091370102
:100640008091340190913501281739071CF46AE52F
:1006500070E002C060E070E083E491E00E949306E5
:100660006AE070E080E090E00C945E070E94C501B3
:1006700090930A01809309010197D1F510922E0100
:1006800010922D0180910401811130C081E080938E
:10069000040124E630E040E050E069E471E08CE0E1
:1006A0000E940D0B64E670E080E090E00E945E071F
:1006B00024E630E040E050E068E871E08CE00E9421
:1006C0000D0B64E670E080E090E00E945E072CE293
:1006D00031E040E050E06EEE71E08CE00E940D0BE6
:1006E0006CE271E080E090E00E945E070C94EE0105
:1006F00081E090E090932E0180932D0110920401EF
:10070000089582E390E00E947D019093060180931A
:10071000050164EF71E080E090E00E945E07809147
:10072000050190910601019731F410922E0110926B
:100730002D010C94BE0282E090E090932E018093F4
:100740002D0108958EE690E00E947D0190930801AE
:100750008093070164EF71E080E090E00E945E0703
:100760008091070190910801019731F410922E01B8
:1007700010922D010C94B40283E090E090932E012E
:1007800080932D01089580912D0190912E0181304B
:10079000910561F01CF4892B39F0089582309105A0
:1007A00039F0039739F008950C9436030C948103C3
:1007B0000C94A20381E090E090932E0180932D0190
:1007C0000C94130283E491E00E94BA0580E491E066
:1007D0000E94BA0581E391E00C94BA05DC01EC912A
:1007E0008E2FEE0F990BAA0BBB0BFC01E254F10903
:1007F000E431F10558F5E65AFF4F0C94750F81E08E
:1008000090E002C082E090E090934701809346011F
:100810001DC083E090E090934701809346011092C1
:100820002E0110922D0112C0109247011092460124
:100830000E94AD010BC00E94EE0108C00E9413028D
:1008400005C00E946B0202C00E94900287E791E0FF
:100850000C94850980910F019091100182309105CF
:1008600039F0039751F440E052EC61E070E009C0C8
:1008700040E05BE460E070E004C040E056E960E026
:1008800070E026E087E791E00E94EE0987E791E0BB
:100890000E94850968E070E083E491E00E945806B8
:1008A00069E070E080E491E00E9458066BE070E03F
:1008B00081E391E00E94580660E082E00E945008C7
:1008C00060E083E00E94500880910F019091100138
:1008D000039739F484E090E090930E0180930D012A
:1008E00009C061E084E00E94500860E080910D0141
:1008F0000E9450080E94AD016AE070E080E590E03F
:100900000E946301109247011092460188EC90E02A
:1009100090933501809334010895CF93DF9387E757
:1009200091E00E941709181619060CF047C01092A2
:1009300027011092260185E0E8E2F1E0DF011D9237
:100940008A95E9F765E070E080E090E00E945E073C
:1009500087E791E00E9417098630910514F085E041
:1009600090E090932501809324018091240190913F
:1009700025019C0121503109309325012093240148
:10098000892BC1F0C0912601D0912701CE0101969B
:10099000909327018093260187E791E00E94310917
:1009A000C85DDE4F888363E070E080E090E00E94E5
:1009B0005E07DBCF88E291E00E94EE038091460162
:1009C000909147018130910521F4DF91CF910C94F2
:1009D000C8028230910521F4DF91CF910C94F4028A
:1009E000039721F4DF91CF910C94C303DF91CF9152
:1009F00008951F920F920FB60F9211242F933F93D9
:100A00004F935F936F937F938F939F93AF93BF9316
:100A1000EF93FF938091490187FF05C010928500F5
:100A2000109284001BC020914901022E000C330B50
:100A30008091480190E02817390784F4809149019A
:100A4000082E000C990BFC01EE0FFF1F8E0F9F1F4D
:100A5000FC01E65BFE4F808186FD15C08091490157
:100A60008F5F8093490120914901022E000C330BC6
:100A70008091480190E028173907C4F4809149011A
:100A80008C3064F113C080914901082E000C990B41
:100A9000FC01EE0FFF1F8E0F9F1FFC01E65BFE4F58
:100AA000808160E08F730E948C08D8CF8091840091
:100AB00090918500049680349C4918F480E49CE968
:100AC00005C08091840090918500049690938900E0
:100AD000809388008FEF809349013BC02091840070
:100AE0003091850080914901082E000C990BFC0182
:100AF000EE0FFF1F8E0F9F1FFC01E65BFE4F8181F3
:100B00009281820F931F9093890080938800809137
:100B10004901082E000C990BFC01EE0FFF1F8E0FF0
:100B20009F1FFC01E65BFE4F808186FF12C0809113
:100B30004901082E000C990BFC01EE0FFF1F8E0FD0
:100B40009F1FFC01E65BFE4F808161E08F730E9476
:100B50008C08FF91EF91BF91AF919F918F917F9101
:100B60006F915F914F913F912F910F900FBE0F901A
:100B70001F901895FC01909148019C30A0F481E0F1
:100B8000890F809348019083892F90E0FC01EE0F3C
:100B9000FF1F8E0F9F1FFC01E65BFE4F88EB9BE063
:100BA0009283818308958FEF80830895DF92EF927F
:100BB000FF920F931F93CF93DF93EC01D62E7A0110
:100BC000890188818C3008F06AC061E08D2D0E9417
:100BD00050088881E82FF0E09F01220F331FE20FB9
:100BE000F31FE65BFE4F9D2D9F732081207CD22E4C
:100BF000D92AD08260E272E0AB014E195F0957FF3B
:100C000002C04D5F5F4F5595479555954795498370
:100C100040E659E09A01201B310B37FF02C02D5FDF
:100C20003F4F35952795359527952A836CE00E948F
:100C3000280F9CE0899FB001112440E050E09A0108
:100C4000260F371FF901EE0FFF1F2E0F3F1FF9016F
:100C5000E65BFE4F908196FD16C04F5F5F4F4C30B4
:100C6000510569F781110FC01092800082E08093D6
:100C700081001092850010928400B19A80916F00DB
:100C8000826080936F00E881F0E0CF01880F991FA8
:100C9000E80FF91FE65BFE4F8081806480838881C6
:100CA000DF91CF911F910F91FF90EF90DF9008950A
:100CB00020E639E040E252E00C94D605FC01908138
:100CC0009C3080F5818128E830E0281B310987FDC0
:100CD0003395220F331F220F331F621773077CF0E7
:100CE000828128E532E0281B310987FD3395220FE8
:100CF000331F220F331F621773070CF49B0122501E
:100D00003109220F331F4FB7F894892F90E0FC016F
:100D1000EE0FFF1F8E0F9F1FFC01E65BFE4F32831D
:100D200021834FBF0895AF92BF92CF92DF92EF928F
:100D3000FF920F931F93CF93DF93EC01603282E019
:100D400078070CF03FC077FD06C0653B71052CF0BD
:100D500064EB70E002C060E070E0898128E830E078
:100D60005901A81AB10887FDB394AA0CBB1CAA0CA0
:100D7000BB1C0B2C000CCC08DD08072E000C880BCC
:100D8000990B2A8108E512E0021B110927FD139532
:100D9000000F111F000F111F012E000C220B330B2F
:100DA0003F932F931F930F9314EBE12EF12C00E050
:100DB00010E020E030E0A9010E94C60E0F900F90D5
:100DC0000F900F90CE01DF91CF911F910F91FF9067
:100DD000EF90DF90CF90BF90AF900C945E061F9283
:100DE0000F920FB60F9211242F933F938F939F93DF
:100DF000AF93BF9380916F0190917001A0917101A9
:100E0000B091720130916E0123E0230F2D3720F451
:100E10000196A11DB11D05C026E8230F0296A11D54
:100E2000B11D20936E0180936F0190937001A09388
:100E30007101B09372018091730190917401A0913E
:100E40007501B09176010196A11DB11D80937301CA
:100E500090937401A0937501B0937601BF91AF9107
:100E60009F918F913F912F910F900FBE0F901F90E8
:100E700018953FB7F8948091730190917401A091F7
:100E80007501B091760126B5A89B05C02F3F19F0DA
:100E90000196A11DB11D3FBFBA2FA92F982F8827FA
:100EA000820F911DA11DB11DBC01CD0142E0660F55
:100EB000771F881F991F4A95D1F708958F929F92A7
:100EC000AF92BF92CF92DF92EF92FF926B017C01C3
:100ED0000E9439074B015C01C114D104E104F10403
:100EE00001F10E94170F0E943907DC01CB0188191C
:100EF0009909AA09BB09883E9340A105B10560F391
:100F000021E0C21AD108E108F10888EE880E83E0DA
:100F1000981EA11CB11CC114D104E104F10419F7FD
:100F2000DBCFFF90EF90DF90CF90BF90AF909F907E
:100F30008F9008958230910538F0880F991F880F9F
:100F4000991F05970197F1F70895789484B5826009
:100F500084BD84B5816084BD85B5826085BD85B55D
:100F6000816085BDEEE6F0E0808181608083E1E80C
:100F7000F0E0108280818260808380818160808344
:100F8000E0E8F0E0808181608083E1EBF0E0808147
:100F900084608083E0EBF0E0808181608083E1E920
:100FA000F0E0808182608083808181608083E0E9DD
:100FB000F0E0808181608083E1EAF0E080818260FE
:100FC0008083808181608083E0EAF0E080818160BD
:100FD0008083EAE7F0E080818460808380818260A2
:100FE000808380818160808380818068808310928B
:100FF000C10008958E3008F08E5087702091110145
:1010000090E4299F90011124822B80937C00809191
:101010007A00806480937A0080917A0086FDFCCF0C
:10102000809178002091790090E0922B089590E0D3
:10103000FC013197ED30F10590F5E259FF4F0C942A
:10104000750F809180008F7703C0809180008F7D25
:1010500080938000089584B58F7702C084B58F7D1A
:1010600084BD08958091B0008F7703C08091B00057
:101070008F7D8093B0000895809190008F7703C09A
:10108000809190008F7D8093900008958091A000C2
:101090008F7703C08091A0008F7D8093A00008957A
:1010A000CF93DF9390E0FC01E25FFE4F2491FC01BF
:1010B000EA5DFE4F8491882361F190E0880F991FCB
:1010C000FC01EA5AFE4FC591D491FC01E65BFE4F4C
:1010D000A591B491611109C09FB7F89488812095BA
:1010E00082238883EC912E230BC0623061F49FB77A
:1010F000F8943881822F809583238883EC912E2B5E
:101100002C939FBF06C08FB7F894E8812E2B2883BD
:101110008FBFDF91CF9108951F93CF93DF93282F37
:1011200030E0F901EA50FF4F8491F901E25FFE4F90
:10113000D491F901EA5DFE4FC491CC23C9F0162F7A
:1011400081110E941708EC2FF0E0EE0FFF1FE65B05
:10115000FE4FA591B4918FB7F894111105C09C91E1
:10116000ED2FE095E92302C0EC91ED2BEC938FBFBE
:10117000DF91CF911F910895CF93DF93282F30E017
:10118000F901EA50FF4F8491F901E25FFE4FD491DB
:10119000F901EA5DFE4FC491CC2391F081110E94C8
:1011A0001708EC2FF0E0EE0FFF1FE25CFE4FA59159
:1011B000B491EC91ED2381E090E021F480E002C055
:1011C00080E090E0DF91CF9108950F931F9390E01E
:1011D000FC01E25FFE4F7491FC01EA5DFE4FE49179
:1011E000662311F0672F01C060E0F0E0EE0FFF1FF3
:1011F000E25CFE4F8591949189019A013F70462FE0
:10120000672F0E94DE00611571058105910549F087
:10121000DC01CB010196A11DB11DBC01CD019F7068
:1012200003C060E070E0CB011F910F910895FC01B5
:10123000918D228D892F90E0805C9F4F821B9109B8
:101240008F7399270895FC01918D828D981731F045
:10125000828DE80FF11D858D90E008958FEF9FEF4F
:101260000895FC01918D828D981761F0828DDF01C8
:10127000A80FB11D5D968C91928D9F5F9F73928F89
:1012800090E008958FEF9FEF08958BEA9AE0892B05
:1012900041F080E090E0892B21F00E94AB0A81119F
:1012A0000DC080E090E0892B71F080E090E0892B08
:1012B00051F00E940000811104C008950E940000B6
:1012C000F0CF0C9400000895FC01848DDF01A80F7D
:1012D000B11DA35ABF4F2C91848D90E001968F735E
:1012E0009927848FA689B7892C93A089B1898C917D
:1012F00080648C93938D848D981306C00288F38943
:10130000E02D80818F7D80830895CF93DF93EC0162
:10131000888D8823C9F0EA89FB89808185FD05C015
:10132000A889B9898C9186FD0FC00FB607FCF5CF4F
:10133000808185FFF2CFA889B9898C9185FFEDCF97
:10134000CE010E946409E7CFDF91CF910895EF921B
:10135000FF920F931F93CF93DF93EC0181E0888F6F
:101360009B8D8C8D981305C0E889F989808185FD56
:1013700024C0F62E0B8D10E00F5F1F4F0F73112747
:10138000E02E8C8DE8120CC00FB607FCFACFE8896E
:10139000F989808185FFF5CFCE010E946409F1CFE4
:1013A0008B8DFE01E80FF11DE35AFF4FF0820B8F8A
:1013B000EA89FB898081806207C0EE89FF896083AA
:1013C000E889F98980818064808381E090E0DF9101
:1013D000CF911F910F91FF90EF900895CF92DF92E0
:1013E000EF92FF921F93CF93DF93EC016A017B0191
:1013F000122FE889F98982E080834115514E6105F9
:101400007105B1F060E079E08DE390E0A70196010D
:101410000E94340FDA01C9010197A109B109B695FB
:10142000A79597958795AC01411580E15807A8F0DD
:10143000E889F989108260E874E88EE190E0A701FC
:1014400096010E94340FBA01A90141505109610966
:1014500071097695679557954795EC85FD8550837D
:10146000EE85FF854083188EEC89FD891083EA891B
:10147000FB89808180618083EA89FB898081886023
:101480008083EA89FB89808180688083EA89FB897F
:1014900080818F7D8083DF91CF911F91FF90EF90AE
:1014A000DF90CF9008951F920F920FB60F921124E4
:1014B0002F938F939F93EF93FF93E0918701F09188
:1014C00088018081E0918D01F0918E0182FD12C032
:1014D0009081809190018F5F8F732091910182178D
:1014E00051F0E0919001F0E0E958FE4F958F809324
:1014F000900101C08081FF91EF919F918F912F9179
:101500000F900FBE0F901F9018951F920F920FB65D
:101510000F9211242F933F934F935F936F937F9379
:101520008F939F93AF93BF93EF93FF9387E791E0E0
:101530000E946409FF91EF91BF91AF919F918F91AC
:101540007F916F915F914F913F912F910F900FBEBF
:101550000F901F90189587E791E00E94170921E0EE
:10156000892B09F420E0822F0895E7E7F1E0138248
:10157000128288EE93E0A0E0B0E084839583A68396
:10158000B78387E191E09183808385EC90E0958734
:10159000848784EC90E09787868780EC90E0918B3D
:1015A000808B81EC90E0938B828B82EC90E0958B2A
:1015B000848B86EC90E0978B868B118E128E138E27
:1015C000148E0895CF92DF92EF92FF920F931F93A4
:1015D000CF93DF936C017A018B01C0E0D0E0CE1590
:1015E000DF0589F0D8016D918D01D601ED91FC9157
:1015F0000190F081E02DC6010995892B11F47E013F
:1016000002C02196ECCFC701DF91CF911F910F91BE
:10161000FF90EF90DF90CF9008953F924F925F92AE
:101620006F927F928F929F92AF92BF92CF92DF92F2
:10163000EF92FF920F931F93CF93DF9300D000D0D0
:10164000CDB7DEB729013A0190911201981721F028
:101650009F3F09F0E0C204C0E2E6F1E03490DAC056
:1016600080931201E2E6F1E0E491EF3F09F4D3C286
:10167000E23009F47EC074F5EE2309F459C0E1307C
:1016800009F0C7C0109280001092810090918100F3
:101690009860909381009091810091609093810077
:1016A000282F30E0F901EA5DFE4FE491F0E0EE0F03
:1016B000FF1FE65BFE4F4591549150932B024093E0
:1016C0002A02F901E25FFE4FE491E09329023324FC
:1016D0003394A2C0E33009F474C0E43009F099C037
:1016E0001092A0001092A1009091A1009860909398
:1016F000A1009091A10091609093A100482F50E02B
:10170000FA01EA5DFE4FE491F0E0EE0FFF1FE65BA9
:10171000FE4F259134913093160220931502FA0161
:10172000E25FFE4FE491E0931402B4E03B2E74C0FC
:1017300014BC15BC94B5926094BD95B5916095BDEF
:10174000282F30E0F901EA5DFE4FE491F0E0EE0F62
:10175000FF1FE65BFE4F4591549150933202409338
:101760003102F901E25FFE4FE491E0933002312C47
:1017700053C01092B0001092B1009091B0009260EE
:101780009093B0009091B10091609093B100282F98
:1017900030E0F901EA5DFE4FE491F0E0EE0FFF1F4B
:1017A000E65BFE4F459154915093240240932302EF
:1017B000F901E25FFE4FE491E093220222E0322E33
:1017C0002BC010929000109291009091910098601F
:1017D0009093910090919100916090939100282FA7
:1017E00030E0F901EA5DFE4FE491F0E0EE0FFF1FFB
:1017F000E65BFE4F4591549150931D0240931C02AD
:10180000F901E25FFE4FE491E0931B0203E0302E0A
:1018100003C03E2E37FCFFC18B0161E00E945008DF
:101820004801A12CB12C832D8D7F09F0BBC060E055
:1018300072E18AE790E0A50194010E94560F298386
:101840003A834B835C8369017A0121E0C21AD10893
:10185000E108F1088FEFC816D104E104F10409F0A2
:1018600008F44CC060E472E48FE090E0A5019401BC
:101870000E94560F69017A0191E0C91AD108E10866
:10188000F108E2E03E1220C0FFEFCF16D104E104E0
:10189000F10409F008F4BDC160E970ED83E090E067
:1018A000A50194010E94560F69017A0181E0C81ACE
:1018B000D108E108F1089FEFC916D104E104F10451
:1018C00009F0D0F583E067C0EFEFCE16D104E10454
:1018D000F104B1F0A8F068E478EE81E090E0A501B1
:1018E00094010E94560F69017A01F1E0CF1AD108E4
:1018F000E108F108332009F46AC160C181E001C048
:1019000082E03320A1F047C089819A81AB81BC81FC
:101910002AE0B595A795979587952A95D1F76C01FB
:101920007D01F1E0CF1AD108E108F10885E095B515
:10193000987F892B85BD93C068E478EE81E090E0C4
:10194000A50194010E94560F69017A0181E0C81A2D
:10195000D108E108F1089FEFC916D104E104F104B0
:1019600009F008F4FAC064E274EF80E090E0A501A9
:1019700094010E94560F69017A0181E0C81AD108CA
:10198000E108F1089FEFC916D104E104F10411F058
:1019900008F0E5C085E09091B100987F892B809395
:1019A000B1005DC060E072E18AE790E0A5019401BA
:1019B0000E94560F69017A01F1E0CF1AD108E108BF
:1019C000F108C114D10421E0E206F10488F068E4D2
:1019D00078EE81E090E0A50194010E94560F690124
:1019E0007A0181E0C81AD108E108F10883E001C05A
:1019F00081E091E039120FC090918100987F892B8E
:101A000080938100411451046104710469F52FEF42
:101A10003FEFA9015CC0E3E03E120FC0909191003E
:101A2000987F892B809391004114510461047104C3
:101A3000D9F42FEF3FEFA9016CC0F4E03F120FC0C3
:101A40009091A100987F892B8093A10041145104AB
:101A50006104710449F42FEF3FEFA9016CC04114F8
:101A600051046104710471F0D801AA0FBB1FA301D6
:101A700092010E947B0F28EE33E040E050E00E948C
:101A8000340F03C02FEF3FEFA90182E0381689F130
:101A9000831534F0332061F091E03916C1F0BBC0FA
:101AA000E3E03E16B1F1F4E03F1609F444C0B3C0E0
:101AB000C7BC2093330230933402409335025093D5
:101AC000360280916E00826080936E00A4C0D09236
:101AD0008900C092880020932C0230932D024093FD
:101AE0002E0250932F0280916F00826080936F00CE
:101AF00092C0C092B30020932502309326024093F7
:101B000027025093280280917000826080937000B9
:101B100082C0D0929900C092980020931E02309308
:101B20001F02409320025093210280917100826035
:101B30008093710070C0D092A900C092A800209339
:101B40001702309318024093190250931A028091A1
:101B500072008260809372005EC084E01CCF62E1FC
:101B60007AE780E090E0A50194010E94560F690198
:101B70007A01E1E0CE1AD108E108F108FFEFCF16B3
:101B8000D104E104F104C1F0B8F089819A81AB81FC
:101B9000BC814AE0B595A795979587954A95D1F769
:101BA0006C017D01E1E0CE1AD108E108F108332093
:101BB00009F4BCCE87E0EFCE86E0A3CE2FEFC216AD
:101BC000D104E104F10409F050F684E09ACEEFEF7D
:101BD000CE16D104E104F104D1F0C8F062E17AE755
:101BE00080E090E0A50194010E94560F69017A01FE
:101BF00081E0C81AD108E108F1089FEFC916D104A5
:101C0000E104F10411F008F07FCE84E090CE83E08F
:101C10008ECE82E0C0CE0F900F900F900F90DF918C
:101C2000CF911F910F91FF90EF90DF90CF90BF90D9
:101C3000AF909F908F907F906F905F904F903F906C
:101C400008958230A1F028F4882341F0813049F0D2
:101C500008958330E9F0843009F1089510926E0000
:101C6000089580916F008D7F80936F00089580911B
:101C700070008D7F8093700081E08093B000809130
:101C8000B100887F84608093B1001092B300089502
:101C9000809171008D7F8093710008958091720012
:101CA0008D7F809372000895CF93C82F8091120189
:101CB0008C1307C0E2E6F1E0E4918FEF809312010C
:101CC00001C0EFEF8E2F0E94210E60E08C2FCF918C
:101CD0000C948C081F920F920FB60F9211242F9321
:101CE0003F934F935F936F937F938F939F93AF93A4
:101CF000BF93EF93FF938091250290912602A091CC
:101D00002702B0912802892B8A2B8B2B51F18091CD
:101D10002202E0912302F09124029081892780839E
:101D20008091250290912602A0912702B09128026D
:101D3000181619061A061B06C4F480912502909104
:101D40002602A0912702B09128020197A109B109AA
:101D50008093250290932602A0932702B093280235
:101D600004C0809112010E94540EFF91EF91BF9127
:101D7000AF919F918F917F916F915F914F913F9123
:101D80002F910F900FBE0F901F9018954F925F925A
:101D90006F927F92AF92BF92CF92DF92EF92FF92BB
:101DA0000F931F93CF93DF93CDB7DEB729013A018D
:101DB0009B01AC01241935094609570989899A897B
:101DC000AB89BC89BC01CD016A197B098C099D09CD
:101DD0000E94180FA80197012419350946095709CF
:101DE0000E94560FCA01B9016A0D7B1D8C1D9D1DF5
:101DF000DF91CF911F910F91FF90EF90DF90CF90E7
:101E0000BF90AF907F906F905F904F90089508952E
:101E10000E94A5070E94070F0E942A04C5E4D9E08A
:101E20000E948D042097E1F30E944509F9CF08959F
:101E3000DB018F939F930E947B0FBF91AF91A29F75
:101E4000800D911DA39F900DB29F900D11240895B8
:101E5000991B79E004C0991F961708F0961B881FFC
:101E60007A95C9F780950895A1E21A2EAA1BBB1B8B
:101E7000FD010DC0AA1FBB1FEE1FFF1FA217B30756
:101E8000E407F50720F0A21BB30BE40BF50B661F6C
:101E9000771F881F991F1A9469F760957095809530
:101EA00090959B01AC01BD01CF010895052E97FBD4
:101EB0001EF400940E946D0F57FD07D00E94340F4E
:101EC00007FC03D04EF40C946D0F5095409530955F
:101ED00021953F4F4F4F5F4F089590958095709596
:101EE00061957F4F8F4F9F4F0895EE0FFF1F059015
:101EF000F491E02D09940E94860FA59F900DB49F48
:101F0000900DA49F800D911D11240895A29FB001F2
:101F1000B39FC001A39F700D811D1124911DB29F1D
:0E1F2000700D811D1124911D0895F894FFCFBE
:101F2E000100000001010001000100010005000296
:101F3E000001FF00000000A709E20A17093109237A
:041F4E0009850900F8
:00000001FF
