:100000000C94B4000C94DC000C94DC000C94DC0028
:100010000C94DC000C94DC000C94DC000C94300E8E
:100020000C94DC000C94DC000C94DC000C94BF04F9
:100030000C94DC000C94DC000C94DC000C94DC00D0
:100040000C94B5060C94DC000C94190A0C944B0A21
:100050000C94DC000C94DC000C94DC000C94DC00B0
:100060000C94DC000C94DC000C94DC000C94DC00A0
:100070000C94DC000C94DC000C94DC000C94DC0090
:100080000C94DC000C94DC000C94DC000C94DC0080
:100090000C94DC000C94DC000C94DC000C94DC0070
:1000A0000C94DC000C94DC000C94DC000C94DC0060
:1000B0000C94DC00F0030D0405040D040D04E903A9
:1000C0000D04E6030D040D040804FB030D040D04E8
:1000D0000D040D040B04FF030D040204F107F407E3
:1000E000E707EB0715081508F807FC0702080608DC
:1000F00015080C081008090C0A080002010000038A
:1001000004070000000000000000000000000102E1
:100110000408102040800102040810200102040895
:10012000102004080102040404040404040402026C
:100130000202020203030303030305050505000091
:1001400000002300260029002C00000000002500EC
:1001500028002B002E0000000000240027002A00A9
:100160002D000200C9037B0A11241FBECFEFD8E087
:10017000DEBFCDBF11E0A0E0B1E0EAEBFEE102C0DE
:1001800005900D92A032B107D9F722E0A0E2B1E0CC
:1001900001C01D92A333B207E1F710E0C4EBD0E039
:1001A00004C02197FE010E943B0FC23BD107C9F753
:1001B0000E94CE0E0C945B0F0C940000CF92DF9245
:1001C000EF92FF920F931F93E82FF92F05C0015074
:1001D00011092109310961F1908196239417B9F32E
:1001E00005C0015011092109310911F190819623AF
:1001F0009413F7CFC12CD12CE12CF12C0AC08FEF36
:10020000C81AD80AE80AF80A0C151D052E053F057C
:1002100079F080818623841791F36C2D7D2D8E2DAE
:100220009F2D1F910F91FF90EF90DF90CF90089539
:1002300060E070E080E090E01F910F91FF90EF9000
:10024000DF90CF90089560E084E00E94520882E041
:1002500090E00E94600761E084E00E9452088AE01A
:1002600090E00E94600760E084E00E94520820E471
:1002700032E44FE050E061E085E00C94AB080E946E
:1002800023012AE330E040E050E00E941C0FCA0145
:10029000B90108950F931F93CF93DF938C01EB0166
:1002A000BC018DE291E00E945906BE01DD0F880B72
:1002B000990B0E94240710932C0100932B01DF91CE
:1002C000CF911F910F91089564EF71E00E944A0150
:1002D0000E943F0161157105A9F06931710594F41F
:1002E0002CE231E040E050E065E071E08CE00E94FB
:1002F000D30A6CE271E080E090E00E94240780E085
:1003000090E0089526E930E040E050E069E471E0D3
:100310008CE00E94D30A66E970E080E090E00E94E1
:10032000240781E090E008956AE570E08FE391E0B2
:100330000E9459066AE070E080E090E00E94240785
:100340006AE570E08CE391E00E9459066AE070E093
:1003500080E090E00C94240780910401811106C094
:1003600064EF71E080E590E00E944A010E943F0145
:1003700061157105B9F069317105A4F40E94940109
:100380002CE231E040E050E065E071E08CE00E945A
:10039000D30A6CE271E080E090E00E94240780E0E4
:1003A00090E0089581E090E0089580912B01909174
:1003B0002C018035910531F06AE070E080E590E035
:1003C0000E944A0160E070E08FE391E00E945906CC
:1003D0006AE070E080E090E00E94240764EB70E047
:1003E0008CE391E00E9459066AE070E080E090E0C2
:1003F0000C94240780912B0190912C01803591055C
:1004000031F06AE070E080E590E00E944A0180915E
:10041000420190914301039769F524E630E040E002
:1004200050E065E071E08CE00E94D30A6CE271E07C
:1004300080E090E00E94240724E630E040E050E0B5
:1004400065E271E08CE00E94D30A6CE271E080E02A
:1004500090E00E9424072CE231E040E050E065E0AB
:1004600071E08CE00E94D30A64EF71E080E090E0DC
:100470000E94240764EB70E08FE391E00E9459062C
:100480006AE070E080E090E00E94240760E070E0A5
:100490008CE391E00E9459066AE070E080E090E011
:1004A0000C94240780912B0190912C018E3691059C
:1004B00031F06AE070E08EE690E00E944A016AE561
:1004C00070E08FE391E00E9459066AE070E080E0FE
:1004D00090E00E94240764EB70E08CE391E00E94BE
:1004E00059066AE070E080E090E00C942407809167
:1004F0002B0190912C01C29731F06AE070E082E309
:1005000090E00E944A0160E070E08FE391E00E9479
:1005100059066AE070E080E090E00E9424076AE5F6
:1005200070E08CE391E00E9459066AE070E080E0A0
:1005300090E00C9424070E94520264E873E080E08B
:1005400090E00E9424070C9494010E94770264E8D2
:1005500073E080E090E00E9424070C94940182E014
:100560000E94820890933B0180933A0183E00E94AD
:100570008208909339018093380160913A0170911B
:100580003B0120910B0130910C01409136015091BB
:1005900037016217730729F48417950711F40C9437
:1005A00077026417750729F48217930711F40C94E6
:1005B00052020C94D50181E10E94C007909335014D
:1005C0008093340180E10E94C007909333018093AF
:1005D00032012091340130913501809130019091A8
:1005E0003101281739071CF46AE570E002C064EB9A
:1005F00070E08CE391E00E9459066AE070E080E0D0
:1006000090E00E94240720913201309133018091C3
:10061000300190913101281739071CF46AE570E028
:1006200002C060E070E08FE391E00E9459066AE04A
:1006300070E080E090E00C9424070E94AC0190935D
:100640000A01809309010197D1F510922A011092B5
:10065000290180910401811130C081E0809304015F
:1006600024E630E040E050E069E471E08CE00E9474
:10067000D30A64E670E080E090E00E94240724E65C
:1006800030E040E050E068E871E08CE00E94D30A7E
:1006900064E670E080E090E00E9424072CE231E004
:1006A00040E050E06EEE71E08CE00E94D30A6CE214
:1006B00071E080E090E00E9424070C94D50181E075
:1006C00090E090932A0180932901109204010895EB
:1006D00082E390E00E9464019093060180930501FB
:1006E00064EF71E080E090E00E94240780910501B2
:1006F00090910601019731F410922A01109229017C
:100700000C94A50282E090E090932A018093290145
:1007100008958EE690E00E94640190930801809312
:10072000070164EF71E080E090E00E94240780916F
:10073000070190910801019731F410922A0110925B
:1007400029010C949B0283E090E090932A0180930E
:10075000290108958091290190912A018130910504
:1007600061F01CF4892B39F008958230910539F03D
:10077000039739F008950C941D030C9468030C94AE
:10078000890381E090E090932A01809329010C94E1
:10079000FA018FE391E00E9480058CE391E00E94D2
:1007A00080058DE291E00C948005DC01EC918E2FA8
:1007B000EE0F990BAA0BBB0BFC01E254F109E431DB
:1007C000F10558F5E65AFF4F0C943B0F81E090E09D
:1007D00002C082E090E090934301809342011DC0EB
:1007E00083E090E0909343018093420110922A01AC
:1007F0001092290112C010924301109242010E94EE
:1008000094010BC00E94D50108C00E94FA0105C0E6
:100810000E94520202C00E94770283E791E00C948A
:100820004B0926E040E052EC61E070E083E791E0A4
:100830000E94B40983E791E00E944B0968E070E0F0
:100840008FE391E00E941E0669E070E08CE391E086
:100850000E941E066BE070E08DE291E00E941E0691
:1008600060E082E00E94160860E083E00E941608C3
:1008700061E084E00E94160860E085E00E941608AE
:100880000E9494016AE070E080E590E00E944A01D5
:10089000109243011092420188EC90E09093310154
:1008A000809330010895CF93DF9383E791E00E9416
:1008B000DD08181619060CF047C01092230110929B
:1008C000220185E0E4E2F1E0DF011D928A95E9F77B
:1008D00065E070E080E090E00E94240783E791E00B
:1008E0000E94DD088630910514F085E090E0909339
:1008F00021018093200180912001909121019C0190
:10090000215031093093210120932001892BC1F01E
:10091000C0912201D0912301CE0101969093230131
:100920008093220183E791E00E94F708CC5DDE4FBF
:10093000888363E070E080E090E00E942407DBCFD2
:1009400084E291E00E94D50380914201909143019D
:100950008130910521F4DF91CF910C94AF02823068
:10096000910521F4DF91CF910C94DB02039721F4E0
:10097000DF91CF910C94AA03DF91CF9108951F923C
:100980000F920FB60F9211242F933F934F935F93C3
:100990006F937F938F939F93AF93BF93EF93FF9347
:1009A0008091450187FF05C0109285001092840058
:1009B0001BC020914501022E000C330B8091440195
:1009C00090E02817390784F480914501082E000C27
:1009D000990BFC01EE0FFF1F8E0F9F1FFC01EA5BBE
:1009E000FE4F808186FD15C0809145018F5F809309
:1009F000450120914501022E000C330B80914401EA
:100A000090E028173907C4F4809145018C3064F1D7
:100A100013C080914501082E000C990BFC01EE0FCC
:100A2000FF1F8E0F9F1FFC01EA5BFE4F808160E07D
:100A30008F730E945208D8CF8091840090918500D6
:100A4000049680349C4918F480E49CE905C08091A8
:100A5000840090918500049690938900809388008B
:100A60008FEF809345013BC0209184003091850039
:100A700080914501082E000C990BFC01EE0FFF1F21
:100A80008E0F9F1FFC01EA5BFE4F81819281820FD6
:100A9000931F909389008093880080914501082ED0
:100AA000000C990BFC01EE0FFF1F8E0F9F1FFC0126
:100AB000EA5BFE4F808186FF12C080914501082EBF
:100AC000000C990BFC01EE0FFF1F8E0F9F1FFC0106
:100AD000EA5BFE4F808161E08F730E945208FF91B4
:100AE000EF91BF91AF919F918F917F916F915F91A6
:100AF0004F913F912F910F900FBE0F901F9018951F
:100B0000FC01909144019C30A0F481E0890F809316
:100B100044019083892F90E0FC01EE0FFF1F8E0FA0
:100B20009F1FFC01EA5BFE4F88EB9BE09283818371
:100B300008958FEF80830895DF92EF92FF920F93D5
:100B40001F93CF93DF93EC01D62E7A018901888120
:100B50008C3008F06AC061E08D2D0E9416088881F3
:100B6000E82FF0E09F01220F331FE20FF31FEA5B33
:100B7000FE4F9D2D9F732081207CD22ED92AD082BA
:100B800060E272E0AB014E195F0957FF02C04D5F92
:100B90005F4F5595479555954795498340E659E0F0
:100BA0009A01201B310B37FF02C02D5F3F4F359557
:100BB0002795359527952A836CE00E94EE0E9CE0E0
:100BC000899FB001112440E050E09A01260F371FA1
:100BD000F901EE0FFF1F2E0F3F1FF901EA5BFE4FD9
:100BE000908196FD16C04F5F5F4F4C30510569F7FD
:100BF00081110FC01092800082E0809381001092DA
:100C0000850010928400B19A80916F008260809379
:100C10006F00E881F0E0CF01880F991FE80FF91FFE
:100C2000EA5BFE4F8081806480838881DF91CF9171
:100C30001F910F91FF90EF90DF90089520E639E02B
:100C400040E252E00C949C05FC0190819C3080F5C0
:100C5000818128E830E0281B310987FD3395220F78
:100C6000331F220F331F621773077CF0828128E540
:100C700032E0281B310987FD3395220F331F220FE5
:100C8000331F621773070CF49B0122503109220FA6
:100C9000331F4FB7F894892F90E0FC01EE0FFF1F30
:100CA0008E0F9F1FFC01EA5BFE4F328321834FBFF3
:100CB0000895AF92BF92CF92DF92EF92FF920F937F
:100CC0001F93CF93DF93EC01603282E078070CF042
:100CD0003FC077FD06C0653B71052CF064EB70E00A
:100CE00002C060E070E0898128E830E05901A81A6C
:100CF000B10887FDB394AA0CBB1CAA0CBB1C0B2C1F
:100D0000000CCC08DD08072E000C880B990B2A81FB
:100D100008E512E0021B110927FD1395000F111FB2
:100D2000000F111F012E000C220B330B3F932F934A
:100D30001F930F9314EBE12EF12C00E010E020E064
:100D400030E0A9010E948C0E0F900F900F900F9031
:100D5000CE01DF91CF911F910F91FF90EF90DF9027
:100D6000CF90BF90AF900C9424061F920F920FB6B5
:100D70000F9211242F933F938F939F93AF93BF9321
:100D800080916B0190916C01A0916D01B0916E0109
:100D900030916A0123E0230F2D3720F40196A11D25
:100DA000B11D05C026E8230F0296A11DB11D209399
:100DB0006A0180936B0190936C01A0936D01B093D5
:100DC0006E0180916F0190917001A0917101B091BD
:100DD00072010196A11DB11D80936F019093700166
:100DE000A0937101B0937201BF91AF919F918F91C8
:100DF0003F912F910F900FBE0F901F9018953FB706
:100E0000F89480916F0190917001A0917101B0915F
:100E1000720126B5A89B05C02F3F19F00196A11DB0
:100E2000B11D3FBFBA2FA92F982F8827820F911D80
:100E3000A11DB11DBC01CD0142E0660F771F881FC7
:100E4000991F4A95D1F708958F929F92AF92BF92C2
:100E5000CF92DF92EF92FF926B017C010E94FF061E
:100E60004B015C01C114D104E104F10401F10E94C1
:100E7000DD0E0E94FF06DC01CB0188199909AA0941
:100E8000BB09883E9340A105B10560F321E0C21A79
:100E9000D108E108F10888EE880E83E0981EA11CB5
:100EA000B11CC114D104E104F10419F7DBCFFF90A8
:100EB000EF90DF90CF90BF90AF909F908F9008956C
:100EC0008230910538F0880F991F880F991F059778
:100ED0000197F1F70895789484B5826084BD84B554
:100EE000816084BD85B5826085BD85B5816085BD25
:100EF000EEE6F0E0808181608083E1E8F0E010823E
:100F0000808182608083808181608083E0E8F0E07E
:100F1000808181608083E1EBF0E080818460808368
:100F2000E0EBF0E0808181608083E1E9F0E08081A6
:100F300082608083808181608083E0E9F0E080814D
:100F400081608083E1EAF0E080818260808380813B
:100F500081608083E0EAF0E0808181608083EAE75D
:100F6000F0E08081846080838081826080838081E2
:100F7000816080838081806880831092C1000895A1
:100F80008E3008F08E50877020910D0190E4299FDB
:100F900090011124822B80937C0080917A008064E0
:100FA00080937A0080917A0086FDFCCF8091780052
:100FB0002091790090E0922B089590E0FC01319708
:100FC000ED30F10590F5E259FF4F0C943B0F809105
:100FD00080008F7703C0809180008F7D8093800098
:100FE000089584B58F7702C084B58F7D84BD089540
:100FF0008091B0008F7703C08091B0008F7D809387
:10100000B0000895809190008F7703C08091900088
:101010008F7D8093900008958091A0008F7703C00A
:101020008091A0008F7D8093A0000895CF93DF93DF
:1010300090E0FC01E25FFE4F2491FC01EA5DFE4F6F
:101040008491882361F190E0880F991FFC01EA5A8E
:10105000FE4FC591D491FC01E65BFE4FA591B49182
:10106000611109C09FB7F8948881209582238883F5
:10107000EC912E230BC0623061F49FB7F894388155
:10108000822F809583238883EC912E2B2C939FBFF6
:1010900006C08FB7F894E8812E2B28838FBFDF918D
:1010A000CF9108951F93CF93DF93282F30E0F9015C
:1010B000EA50FF4F8491F901E25FFE4FD491F901AC
:1010C000EA5DFE4FC491CC23C9F0162F81110E9416
:1010D000DD07EC2FF0E0EE0FFF1FE65BFE4FA59162
:1010E000B4918FB7F894111105C09C91ED2FE09544
:1010F000E92302C0EC91ED2BEC938FBFDF91CF91F0
:101100001F910895CF93DF93282F30E0F901EA5023
:10111000FF4F8491F901E25FFE4FD491F901EA5D3E
:10112000FE4FC491CC2391F081110E94DD07EC2F7A
:10113000F0E0EE0FFF1FE25CFE4FA591B491EC9141
:10114000ED2381E090E021F480E002C080E090E0B7
:10115000DF91CF9108950F931F9390E0FC01E25F20
:10116000FE4F7491FC01EA5DFE4FE491662311F09D
:10117000672F01C060E0F0E0EE0FFF1FE25CFE4F62
:101180008591949189019A013F70462F672F0E94A3
:10119000DE00611571058105910549F0DC01CB0187
:1011A0000196A11DB11DBC01CD019F7003C060E07F
:1011B00070E0CB011F910F910895FC01918D228D5C
:1011C000892F90E0805C9F4F821B91098F73992734
:1011D0000895FC01918D828D981731F0828DE80F72
:1011E000F11D858D90E008958FEF9FEF0895FC012C
:1011F000918D828D981761F0828DDF01A80FB11D4E
:101200005D968C91928D9F5F9F73928F90E0089571
:101210008FEF9FEF089581E79AE0892B41F080E0FE
:1012200090E0892B21F00E94710A81110DC080E0AD
:1012300090E0892B71F080E090E0892B51F00E94C2
:101240000000811104C008950E940000F0CF0C94AA
:1012500000000895FC01848DDF01A80FB11DA35A81
:10126000BF4F2C91848D90E001968F739927848FC6
:10127000A689B7892C93A089B1898C9180648C93BD
:10128000938D848D981306C00288F389E02D8081A8
:101290008F7D80830895CF93DF93EC01888D882321
:1012A000C9F0EA89FB89808185FD05C0A889B989D3
:1012B0008C9186FD0FC00FB607FCF5CF808185FFAE
:1012C000F2CFA889B9898C9185FFEDCFCE010E941C
:1012D0002A09E7CFDF91CF910895EF92FF920F9304
:1012E0001F93CF93DF93EC0181E0888F9B8D8C8DD2
:1012F000981305C0E889F989808185FD24C0F62E00
:101300000B8D10E00F5F1F4F0F731127E02E8C8D98
:10131000E8120CC00FB607FCFACFE889F989808182
:1013200085FFF5CFCE010E942A09F1CF8B8DFE01FA
:10133000E80FF11DE35AFF4FF0820B8FEA89FB891A
:101340008081806207C0EE89FF896083E889F9891E
:1013500080818064808381E090E0DF91CF911F9154
:101360000F91FF90EF900895CF92DF92EF92FF924E
:101370001F93CF93DF93EC016A017B01122FE88961
:10138000F98982E080834115514E61057105B1F004
:1013900060E079E08DE390E0A70196010E94FA0EEB
:1013A000DA01C9010197A109B109B695A7959795E9
:1013B0008795AC01411580E15807A8F0E889F989C3
:1013C000108260E874E88EE190E0A70196010E9427
:1013D000FA0EBA01A90141505109610971097695C6
:1013E000679557954795EC85FD855083EE85FF857C
:1013F0004083188EEC89FD891083EA89FB898081FE
:1014000080618083EA89FB89808188608083EA89A2
:10141000FB89808180688083EA89FB8980818F7D58
:101420008083DF91CF911F91FF90EF90DF90CF905D
:1014300008951F920F920FB60F9211242F938F933E
:101440009F93EF93FF93E0918301F091840180815A
:10145000E0918901F0918A0182FD12C09081809112
:101460008C018F5F8F7320918D01821751F0E09175
:101470008C01F0E0ED58FE4F958F80938C0101C0F8
:101480008081FF91EF919F918F912F910F900FBECF
:101490000F901F9018951F920F920FB60F92112464
:1014A0002F933F934F935F936F937F938F939F936C
:1014B000AF93BF93EF93FF9383E791E00E942A09D4
:1014C000FF91EF91BF91AF919F918F917F916F911C
:1014D0005F914F913F912F910F900FBE0F901F90F2
:1014E000189583E791E00E94DD0821E0892B09F43B
:1014F00020E0822F0895E3E7F1E01382128288EE64
:1015000093E0A0E0B0E084839583A683B78383E172
:1015100091E09183808385EC90E09587848784ECCB
:1015200090E09787868780EC90E0918B808B81ECB0
:1015300090E0938B828B82EC90E0958B848B86EC91
:1015400090E0978B868B118E128E138E148E0895D9
:10155000CF92DF92EF92FF920F931F93CF93DF937F
:101560006C017A018B01C0E0D0E0CE15DF0589F077
:10157000D8016D918D01D601ED91FC910190F08122
:10158000E02DC6010995892B11F47E0102C0219638
:10159000ECCFC701DF91CF911F910F91FF90EF909A
:1015A000DF90CF9008953F924F925F926F927F921B
:1015B0008F929F92AF92BF92CF92DF92EF92FF9263
:1015C0000F931F93CF93DF9300D000D0CDB7DEB73A
:1015D00029013A0190910E01981721F09F3F09F0DF
:1015E000E0C204C0E2E6F1E03490DAC080930E017C
:1015F000E2E6F1E0E491EF3F09F4D3C2E23009F40E
:101600007EC074F5EE2309F459C0E13009F0C7C07B
:1016100010928000109281009091810098609093C8
:10162000810090918100916090938100282F30E09B
:10163000F901EA5DFE4FE491F0E0EE0FFF1FE65B7B
:10164000FE4F459154915093270240932602F90191
:10165000E25FFE4FE491E093250233243394A2C06D
:10166000E33009F474C0E43009F099C01092A0008E
:101670001092A1009091A10098609093A100909188
:10168000A10091609093A100482F50E0FA01EA5D1B
:10169000FE4FE491F0E0EE0FFF1FE65BFE4F259159
:1016A00034913093120220931102FA01E25FFE4F4F
:1016B000E491E0931002B4E03B2E74C014BC15BC5E
:1016C00094B5926094BD95B5916095BD282F30E09A
:1016D000F901EA5DFE4FE491F0E0EE0FFF1FE65BDB
:1016E000FE4F4591549150932E0240932D02F901E3
:1016F000E25FFE4FE491E0932C02312C53C0109234
:10170000B0001092B1009091B00092609093B00040
:101710009091B10091609093B100282F30E0F901D1
:10172000EA5DFE4FE491F0E0EE0FFF1FE65BFE4F37
:10173000459154915093200240931F02F901E25FBA
:10174000FE4FE491E0931E0222E0322E2BC0109255
:101750009000109291009091910098609093910068
:1017600090919100916090939100282F30E0F901C1
:10177000EA5DFE4FE491F0E0EE0FFF1FE65BFE4FE7
:10178000459154915093190240931802F901E25F78
:10179000FE4FE491E093170203E0302E03C03E2E8B
:1017A00037FCFFC18B0161E00E9416084801A12CA3
:1017B000B12C832D8D7F09F0BBC060E072E18AE718
:1017C00090E0A50194010E941C0F29833A834B836A
:1017D0005C8369017A0121E0C21AD108E108F108AD
:1017E0008FEFC816D104E104F10409F008F44CC0ED
:1017F00060E472E48FE090E0A50194010E941C0F68
:1018000069017A0191E0C91AD108E108F108E2E022
:101810003E1220C0FFEFCF16D104E104F10409F01D
:1018200008F4BDC160E970ED83E090E0A50194018A
:101830000E941C0F69017A0181E0C81AD108E108F1
:10184000F1089FEFC916D104E104F10409F0D0F5C5
:1018500083E067C0EFEFCE16D104E104F104B1F0EC
:10186000A8F068E478EE81E090E0A50194010E9480
:101870001C0F69017A01F1E0CF1AD108E108F108E3
:10188000332009F46AC160C181E001C082E03320E5
:10189000A1F047C089819A81AB81BC812AE0B595CE
:1018A000A795979587952A95D1F76C017D01F1E071
:1018B000CF1AD108E108F10885E095B5987F892B0A
:1018C00085BD93C068E478EE81E090E0A5019401C5
:1018D0000E941C0F69017A0181E0C81AD108E10851
:1018E000F1089FEFC916D104E104F10409F008F4EE
:1018F000FAC064E274EF80E090E0A50194010E94D8
:101900001C0F69017A0181E0C81AD108E108F108C9
:101910009FEFC916D104E104F10411F008F0E5C00D
:1019200085E09091B100987F892B8093B1005DC0D4
:1019300060E072E18AE790E0A50194010E941C0F2B
:1019400069017A01F1E0CF1AD108E108F108C11468
:10195000D10421E0E206F10488F068E478EE81E049
:1019600090E0A50194010E941C0F69017A0181E0B9
:10197000C81AD108E108F10883E001C081E091E0D4
:1019800039120FC090918100987F892B809381003C
:10199000411451046104710469F52FEF3FEFA9016F
:1019A0005CC0E3E03E120FC090919100987F892BBC
:1019B000809391004114510461047104D9F42FEF14
:1019C0003FEFA9016CC0F4E03F120FC09091A1005D
:1019D000987F892B8093A100411451046104710404
:1019E00049F42FEF3FEFA9016CC041145104610489
:1019F000710471F0D801AA0FBB1FA30192010E94CC
:101A0000410F28EE33E040E050E00E94FA0E03C0A0
:101A10002FEF3FEFA90182E0381689F1831534F0EA
:101A2000332061F091E03916C1F0BBC0E3E03E160F
:101A3000B1F1F4E03F1609F444C0B3C0C7BC209331
:101A40002F02309330024093310250933202809142
:101A50006E00826080936E00A4C0D0928900C09214
:101A60008800209328023093290240932A02509341
:101A70002B0280916F00826080936F0092C0C092B1
:101A8000B30020932102309322024093230250930B
:101A900024028091700082608093700082C0D09296
:101AA0009900C092980020931A0230931B02409331
:101AB0001C0250931D02809171008260809371001E
:101AC00070C0D092A900C092A80020931302309356
:101AD00014024093150250931602809172008260A6
:101AE000809372005EC084E01CCF62E17AE780E000
:101AF00090E0A50194010E941C0F69017A01E1E0C8
:101B0000CE1AD108E108F108FFEFCF16D104E104A5
:101B1000F104C1F0B8F089819A81AB81BC814AE0BF
:101B2000B595A795979587954A95D1F76C017D0155
:101B3000E1E0CE1AD108E108F108332009F4BCCE67
:101B400087E0EFCE86E0A3CE2FEFC216D104E104EA
:101B5000F10409F050F684E09ACEEFEFCE16D104EE
:101B6000E104F104D1F0C8F062E17AE780E090E0AE
:101B7000A50194010E941C0F69017A0181E0C81A35
:101B8000D108E108F1089FEFC916D104E104F1047E
:101B900011F008F07FCE84E090CE83E08ECE82E01C
:101BA000C0CE0F900F900F900F90DF91CF911F91AB
:101BB0000F91FF90EF90DF90CF90BF90AF909F90EC
:101BC0008F907F906F905F904F903F9008958230FC
:101BD000A1F028F4882341F0813049F00895833042
:101BE000E9F0843009F1089510926E000895809113
:101BF0006F008D7F80936F000895809170008D7FBE
:101C00008093700081E08093B0008091B100887F64
:101C100084608093B1001092B300089580917100A8
:101C20008D7F809371000895809172008D7F8093E5
:101C300072000895CF93C82F80910E018C1307C0B6
:101C4000E2E6F1E0E4918FEF80930E0101C0EFEF47
:101C50008E2F0E94E70D60E08C2FCF910C945208DC
:101C60001F920F920FB60F9211242F933F934F9311
:101C70005F936F937F938F939F93AF93BF93EF93F4
:101C8000FF938091210290912202A0912302B091B2
:101C90002402892B8A2B8B2B51F180911E02E0911B
:101CA0001F02F09120029081892780838091210278
:101CB00090912202A0912302B091240218161906D5
:101CC0001A061B06C4F48091210290912202A09171
:101CD0002302B09124020197A109B1098093210246
:101CE00090932202A0932302B093240204C0809117
:101CF0000E010E941A0EFF91EF91BF91AF919F913B
:101D00008F917F916F915F914F913F912F910F90A4
:101D10000FBE0F901F9018954F925F926F927F9217
:101D2000AF92BF92CF92DF92EF92FF920F931F93E9
:101D3000CF93DF93CDB7DEB729013A019B01AC0108
:101D4000241935094609570989899A89AB89BC89BB
:101D5000BC01CD016A197B098C099D090E94DE0E28
:101D6000A801970124193509460957090E941C0F3B
:101D7000CA01B9016A0D7B1D8C1D9D1DDF91CF919C
:101D80001F910F91FF90EF90DF90CF90BF90AF9099
:101D90007F906F905F904F90089508950E946B0719
:101DA0000E94CD0E0E941104CBE0D9E00E945304A2
:101DB0002097E1F30E940B09F9CF0895DB018F937F
:101DC0009F930E94410FBF91AF91A29F800D911DE3
:101DD000A39F900DB29F900D11240895991B79E057
:101DE00004C0991F961708F0961B881F7A95C9F7AB
:101DF00080950895A1E21A2EAA1BBB1BFD010DC000
:101E0000AA1FBB1FEE1FFF1FA217B307E407F507AA
:101E100020F0A21BB30BE40BF50B661F771F881F86
:101E2000991F1A9469F760957095809590959B011C
:101E3000AC01BD01CF010895052E97FB1EF400945F
:101E40000E94330F57FD07D00E94FA0E07FC03D003
:101E50004EF40C94330F50954095309521953F4F9B
:101E60004F4F5F4F089590958095709561957F4F86
:101E70008F4F9F4F0895EE0FFF1F0590F491E02DB7
:101E800009940E944C0FA59F900DB49F900DA49FA4
:101E9000800D911D11240895A29FB001B39FC00130
:101EA000A39F700D811D1124911DB29F700D811D86
:0A1EB0001124911D0895F894FFCF4E
:101EBA000100000001010001000100010001FF0012
:101ECA000000006D09A80ADD08F708E9084B0900B7
:00000001FF
